{
    "contractName": "XGTToken",
    "abi": [
        {
            "inputs": [
                {
                    "internalType": "address",
                    "name": "_vestingContract",
                    "type": "address"
                },
                {
                    "internalType": "address[]",
                    "name": "_reserveAddresses",
                    "type": "address[]"
                },
                {
                    "internalType": "address[]",
                    "name": "_vestedAddressesFounders",
                    "type": "address[]"
                },
                {
                    "internalType": "address[]",
                    "name": "_vestedAddressesTeam",
                    "type": "address[]"
                },
                {
                    "internalType": "uint256[]",
                    "name": "_vestedAmountsTeam",
                    "type": "uint256[]"
                },
                {
                    "internalType": "address[]",
                    "name": "_vestedAddressesCommunity",
                    "type": "address[]"
                },
                {
                    "internalType": "uint256[]",
                    "name": "_vestedAmountsCommunity",
                    "type": "uint256[]"
                }
            ],
            "stateMutability": "nonpayable",
            "type": "constructor"
        },
        {
            "anonymous": false,
            "inputs": [
                {
                    "indexed": true,
                    "internalType": "address",
                    "name": "owner",
                    "type": "address"
                },
                {
                    "indexed": true,
                    "internalType": "address",
                    "name": "spender",
                    "type": "address"
                },
                {
                    "indexed": false,
                    "internalType": "uint256",
                    "name": "value",
                    "type": "uint256"
                }
            ],
            "name": "Approval",
            "type": "event"
        },
        {
            "anonymous": false,
            "inputs": [
                {
                    "indexed": true,
                    "internalType": "address",
                    "name": "from",
                    "type": "address"
                },
                {
                    "indexed": true,
                    "internalType": "address",
                    "name": "to",
                    "type": "address"
                },
                {
                    "indexed": false,
                    "internalType": "uint256",
                    "name": "value",
                    "type": "uint256"
                }
            ],
            "name": "Transfer",
            "type": "event"
        },
        {
            "inputs": [],
            "name": "COMMUNITY_AND_AIRDROPS",
            "outputs": [
                {
                    "internalType": "uint256",
                    "name": "",
                    "type": "uint256"
                }
            ],
            "stateMutability": "view",
            "type": "function"
        },
        {
            "inputs": [],
            "name": "FOUNDERS_RESERVE",
            "outputs": [
                {
                    "internalType": "uint256",
                    "name": "",
                    "type": "uint256"
                }
            ],
            "stateMutability": "view",
            "type": "function"
        },
        {
            "inputs": [],
            "name": "ISSUE_RESERVE",
            "outputs": [
                {
                    "internalType": "uint256",
                    "name": "",
                    "type": "uint256"
                }
            ],
            "stateMutability": "view",
            "type": "function"
        },
        {
            "inputs": [],
            "name": "MARKET_MAKING",
            "outputs": [
                {
                    "internalType": "uint256",
                    "name": "",
                    "type": "uint256"
                }
            ],
            "stateMutability": "view",
            "type": "function"
        },
        {
            "inputs": [],
            "name": "MAX_SUPPLY",
            "outputs": [
                {
                    "internalType": "uint256",
                    "name": "",
                    "type": "uint256"
                }
            ],
            "stateMutability": "view",
            "type": "function"
        },
        {
            "inputs": [],
            "name": "TEAM_AND_ADVISORS",
            "outputs": [
                {
                    "internalType": "uint256",
                    "name": "",
                    "type": "uint256"
                }
            ],
            "stateMutability": "view",
            "type": "function"
        },
        {
            "inputs": [],
            "name": "XION_RESERVE",
            "outputs": [
                {
                    "internalType": "uint256",
                    "name": "",
                    "type": "uint256"
                }
            ],
            "stateMutability": "view",
            "type": "function"
        },
        {
            "inputs": [
                {
                    "internalType": "address",
                    "name": "owner",
                    "type": "address"
                },
                {
                    "internalType": "address",
                    "name": "spender",
                    "type": "address"
                }
            ],
            "name": "allowance",
            "outputs": [
                {
                    "internalType": "uint256",
                    "name": "",
                    "type": "uint256"
                }
            ],
            "stateMutability": "view",
            "type": "function"
        },
        {
            "inputs": [
                {
                    "internalType": "address",
                    "name": "spender",
                    "type": "address"
                },
                {
                    "internalType": "uint256",
                    "name": "amount",
                    "type": "uint256"
                }
            ],
            "name": "approve",
            "outputs": [
                {
                    "internalType": "bool",
                    "name": "",
                    "type": "bool"
                }
            ],
            "stateMutability": "nonpayable",
            "type": "function"
        },
        {
            "inputs": [
                {
                    "internalType": "address",
                    "name": "account",
                    "type": "address"
                }
            ],
            "name": "balanceOf",
            "outputs": [
                {
                    "internalType": "uint256",
                    "name": "",
                    "type": "uint256"
                }
            ],
            "stateMutability": "view",
            "type": "function"
        },
        {
            "inputs": [
                {
                    "internalType": "uint256",
                    "name": "amount",
                    "type": "uint256"
                }
            ],
            "name": "burn",
            "outputs": [],
            "stateMutability": "nonpayable",
            "type": "function"
        },
        {
            "inputs": [
                {
                    "internalType": "address",
                    "name": "account",
                    "type": "address"
                },
                {
                    "internalType": "uint256",
                    "name": "amount",
                    "type": "uint256"
                }
            ],
            "name": "burnFrom",
            "outputs": [],
            "stateMutability": "nonpayable",
            "type": "function"
        },
        {
            "inputs": [],
            "name": "decimals",
            "outputs": [
                {
                    "internalType": "uint8",
                    "name": "",
                    "type": "uint8"
                }
            ],
            "stateMutability": "view",
            "type": "function"
        },
        {
            "inputs": [
                {
                    "internalType": "address",
                    "name": "spender",
                    "type": "address"
                },
                {
                    "internalType": "uint256",
                    "name": "subtractedValue",
                    "type": "uint256"
                }
            ],
            "name": "decreaseAllowance",
            "outputs": [
                {
                    "internalType": "bool",
                    "name": "",
                    "type": "bool"
                }
            ],
            "stateMutability": "nonpayable",
            "type": "function"
        },
        {
            "inputs": [
                {
                    "internalType": "address",
                    "name": "spender",
                    "type": "address"
                },
                {
                    "internalType": "uint256",
                    "name": "addedValue",
                    "type": "uint256"
                }
            ],
            "name": "increaseAllowance",
            "outputs": [
                {
                    "internalType": "bool",
                    "name": "",
                    "type": "bool"
                }
            ],
            "stateMutability": "nonpayable",
            "type": "function"
        },
        {
            "inputs": [],
            "name": "name",
            "outputs": [
                {
                    "internalType": "string",
                    "name": "",
                    "type": "string"
                }
            ],
            "stateMutability": "view",
            "type": "function"
        },
        {
            "inputs": [],
            "name": "symbol",
            "outputs": [
                {
                    "internalType": "string",
                    "name": "",
                    "type": "string"
                }
            ],
            "stateMutability": "view",
            "type": "function"
        },
        {
            "inputs": [],
            "name": "totalSupply",
            "outputs": [
                {
                    "internalType": "uint256",
                    "name": "",
                    "type": "uint256"
                }
            ],
            "stateMutability": "view",
            "type": "function"
        },
        {
            "inputs": [
                {
                    "internalType": "address",
                    "name": "recipient",
                    "type": "address"
                },
                {
                    "internalType": "uint256",
                    "name": "amount",
                    "type": "uint256"
                }
            ],
            "name": "transfer",
            "outputs": [
                {
                    "internalType": "bool",
                    "name": "",
                    "type": "bool"
                }
            ],
            "stateMutability": "nonpayable",
            "type": "function"
        },
        {
            "inputs": [
                {
                    "internalType": "address",
                    "name": "sender",
                    "type": "address"
                },
                {
                    "internalType": "address",
                    "name": "recipient",
                    "type": "address"
                },
                {
                    "internalType": "uint256",
                    "name": "amount",
                    "type": "uint256"
                }
            ],
            "name": "transferFrom",
            "outputs": [
                {
                    "internalType": "bool",
                    "name": "",
                    "type": "bool"
                }
            ],
            "stateMutability": "nonpayable",
            "type": "function"
        }
    ],
    "bytecode": "60806040523480156200001157600080fd5b506040516200191e3803806200191e833981810160405260e08110156200003757600080fd5b8151602083018051604051929492938301929190846401000000008211156200005f57600080fd5b9083019060208201858111156200007557600080fd5b82518660208202830111640100000000821117156200009357600080fd5b82525081516020918201928201910280838360005b83811015620000c2578181015183820152602001620000a8565b5050505090500160405260200180516040519392919084640100000000821115620000ec57600080fd5b9083019060208201858111156200010257600080fd5b82518660208202830111640100000000821117156200012057600080fd5b82525081516020918201928201910280838360005b838110156200014f57818101518382015260200162000135565b50505050905001604052602001805160405193929190846401000000008211156200017957600080fd5b9083019060208201858111156200018f57600080fd5b8251866020820283011164010000000082111715620001ad57600080fd5b82525081516020918201928201910280838360005b83811015620001dc578181015183820152602001620001c2565b50505050905001604052602001805160405193929190846401000000008211156200020657600080fd5b9083019060208201858111156200021c57600080fd5b82518660208202830111640100000000821117156200023a57600080fd5b82525081516020918201928201910280838360005b83811015620002695781810151838201526020016200024f565b50505050905001604052602001805160405193929190846401000000008211156200029357600080fd5b908301906020820185811115620002a957600080fd5b8251866020820283011164010000000082111715620002c757600080fd5b82525081516020918201928201910280838360005b83811015620002f6578181015183820152602001620002dc565b50505050905001604052602001805160405193929190846401000000008211156200032057600080fd5b9083019060208201858111156200033657600080fd5b82518660208202830111640100000000821117156200035457600080fd5b82525081516020918201928201910280838360005b838110156200038357818101518382015260200162000369565b50505050905001604052505050604051806040016040528060118152602001702c34b7b71023b637b130b6102a37b5b2b760791b815250604051806040016040528060038152602001621611d560ea1b8152508160039080519060200190620003ee92919062000a14565b5080516200040490600490602084019062000a14565b50506005805460ff19166012179055506001600160a01b03871662000470576040805162461bcd60e51b815260206004820152601b60248201527f5847542d494e56414c49442d56455354494e472d414444524553530000000000604482015290519081900360640190fd5b620004a3866000815181106200048257fe5b60200260200101516b01743b34e18439b5020000006200083a60201b60201c565b620004d586600181518110620004b557fe5b60200260200101516a295be96e640669720000006200083a60201b60201c565b620004ec876aa56fa5b99019a5c80000006200083a565b62000503876a7c13bc4b2c133c560000006200083a565b6200051a876a52b7d2dcc80cd2e40000006200083a565b62000531876a295be96e640669720000006200083a565b6b033b2e3c9fd0803ce80000006200054862000949565b1462000590576040805162461bcd60e51b81526020600482015260126024820152715847542d494e56414c49442d535550504c5960701b604482015290519081900360640190fd5b6000600490506000620005d46001620005c08651620005c08a518c516200094f60201b620007891790919060201c565b6200094f60201b620007891790919060201c565b6001600160401b0381118015620005ea57600080fd5b5060405190808252806020026020018201604052801562000615578160200160208202803683370190505b509050876002815181106200062657fe5b6020026020010151816000815181106200063c57fe5b60200260200101906001600160a01b031690816001600160a01b031681525050866000815181106200066a57fe5b6020026020010151816001815181106200068057fe5b60200260200101906001600160a01b031690816001600160a01b03168152505086600181518110620006ae57fe5b602002602001015181600281518110620006c457fe5b60200260200101906001600160a01b031690816001600160a01b03168152505086600281518110620006f257fe5b6020026020010151816003815181106200070857fe5b6001600160a01b03909216602092830291909101909101526a295be96e6406697200000060005b8751811015620007ae57620007678782815181106200074a57fe5b602002602001015183620009b160201b620007e31790919060201c565b91508781815181106200077657fe5b602002602001015183828601815181106200078d57fe5b6001600160a01b03909216602092830291909101909101526001016200072f565b50865192909201916a52b7d2dcc80cd2e400000060005b86518110156200082757620007e08682815181106200074a57fe5b9150868181518110620007ef57fe5b602002602001015184828701815181106200080657fe5b6001600160a01b0390921660209283029190910190910152600101620007c5565b5062000ac09a5050505050505050505050565b6001600160a01b03821662000896576040805162461bcd60e51b815260206004820152601f60248201527f45524332303a206d696e7420746f20746865207a65726f206164647265737300604482015290519081900360640190fd5b620008a46000838362000a0f565b620008c0816002546200094f60201b620007891790919060201c565b6002556001600160a01b03821660009081526020818152604090912054620008f3918390620007896200094f821b17901c565b6001600160a01b0383166000818152602081815260408083209490945583518581529351929391927fddf252ad1be2c89b69c2b068fc378daa952ba7f163c4a11628f55a4df523b3ef9281900390910190a35050565b60025490565b600082820183811015620009aa576040805162461bcd60e51b815260206004820152601b60248201527f536166654d6174683a206164646974696f6e206f766572666c6f770000000000604482015290519081900360640190fd5b9392505050565b60008282111562000a09576040805162461bcd60e51b815260206004820152601e60248201527f536166654d6174683a207375627472616374696f6e206f766572666c6f770000604482015290519081900360640190fd5b50900390565b505050565b828054600181600116156101000203166002900490600052602060002090601f01602090048101928262000a4c576000855562000a97565b82601f1062000a6757805160ff191683800117855562000a97565b8280016001018555821562000a97579182015b8281111562000a9757825182559160200191906001019062000a7a565b5062000aa592915062000aa9565b5090565b5b8082111562000aa5576000815560010162000aaa565b610e4e8062000ad06000396000f3fe608060405234801561001057600080fd5b506004361061012c5760003560e01c80634f27fd28116100ad57806395d89b411161007157806395d89b4114610321578063a457c2d714610329578063a9059cbb14610355578063c0becbe814610381578063dd62ed3e146103895761012c565b80634f27fd28146102bf5780634fad7560146101ee57806370a08231146102c757806374aa6cf8146102ed57806379cc6790146102f55761012c565b806323b872dd116100f457806323b872dd14610218578063313ce5671461024e57806332cb6b0c1461026c578063395093511461027457806342966c68146102a05761012c565b806306fdde0314610131578063095ea7b3146101ae5780630b2fd223146101ee5780630c0aa0271461020857806318160ddd14610210575b600080fd5b6101396103b7565b6040805160208082528351818301528351919283929083019185019080838360005b8381101561017357818101518382015260200161015b565b50505050905090810190601f1680156101a05780820380516001836020036101000a031916815260200191505b509250505060405180910390f35b6101da600480360360408110156101c457600080fd5b506001600160a01b03813516906020013561044d565b604080519115158252519081900360200190f35b6101f661046a565b60408051918252519081900360200190f35b6101f6610479565b6101f6610488565b6101da6004803603606081101561022e57600080fd5b506001600160a01b0381358116916020810135909116906040013561048e565b610256610501565b6040805160ff9092168252519081900360200190f35b6101f661050a565b6101da6004803603604081101561028a57600080fd5b506001600160a01b03813516906020013561051a565b6102bd600480360360208110156102b657600080fd5b503561056d565b005b6101f6610581565b6101f6600480360360208110156102dd57600080fd5b50356001600160a01b0316610590565b6101f66105ab565b6102bd6004803603604081101561030b57600080fd5b506001600160a01b0381351690602001356105ba565b610139610614565b6101da6004803603604081101561033f57600080fd5b506001600160a01b038135169060200135610675565b6101da6004803603604081101561036b57600080fd5b506001600160a01b0381351690602001356106dd565b6101f661074e565b6101f66004803603604081101561039f57600080fd5b506001600160a01b038135811691602001351661075e565b60038054604080516020601f60026000196101006001881615020190951694909404938401819004810282018101909252828152606093909290918301828280156104435780601f1061041857610100808354040283529160200191610443565b820191906000526020600020905b81548152906001019060200180831161042657829003601f168201915b5050505050905090565b600061046161045a610840565b8484610844565b50600192915050565b6a295be96e6406697200000081565b6a7c13bc4b2c133c5600000081565b60025490565b60006001600160a01b0383163014156104ee576040805162461bcd60e51b815260206004820152601d60248201527f5847542d43414e542d5452414e534645522d544f2d434f4e5452414354000000604482015290519081900360640190fd5b6104f9848484610930565b949350505050565b60055460ff1690565b6b033b2e3c9fd0803ce800000081565b6000610461610527610840565b846105688560016000610538610840565b6001600160a01b03908116825260208083019390935260409182016000908120918c168152925290205490610789565b610844565b61057e610578610840565b826109b2565b50565b6a52b7d2dcc80cd2e400000081565b6001600160a01b031660009081526020819052604090205490565b6aa56fa5b99019a5c800000081565b60006105f182604051806060016040528060248152602001610d66602491396105ea866105e5610840565b61075e565b9190610aae565b9050610605836105ff610840565b83610844565b61060f83836109b2565b505050565b60048054604080516020601f60026000196101006001881615020190951694909404938401819004810282018101909252828152606093909290918301828280156104435780601f1061041857610100808354040283529160200191610443565b6000610461610682610840565b8461056885604051806060016040528060258152602001610df460259139600160006106ac610840565b6001600160a01b03908116825260208083019390935260409182016000908120918d16815292529020549190610aae565b60006001600160a01b03831630141561073d576040805162461bcd60e51b815260206004820152601d60248201527f5847542d43414e542d5452414e534645522d544f2d434f4e5452414354000000604482015290519081900360640190fd5b6107478383610b45565b9392505050565b6b01743b34e18439b50200000081565b6001600160a01b03918216600090815260016020908152604080832093909416825291909152205490565b600082820183811015610747576040805162461bcd60e51b815260206004820152601b60248201527f536166654d6174683a206164646974696f6e206f766572666c6f770000000000604482015290519081900360640190fd5b60008282111561083a576040805162461bcd60e51b815260206004820152601e60248201527f536166654d6174683a207375627472616374696f6e206f766572666c6f770000604482015290519081900360640190fd5b50900390565b3390565b6001600160a01b0383166108895760405162461bcd60e51b8152600401808060200182810382526024815260200180610dd06024913960400191505060405180910390fd5b6001600160a01b0382166108ce5760405162461bcd60e51b8152600401808060200182810382526022815260200180610cf66022913960400191505060405180910390fd5b6001600160a01b03808416600081815260016020908152604080832094871680845294825291829020859055815185815291517f8c5be1e5ebec7d5bd14f71427d1e84f3dd0314c0f7b2291e5b200ac8c7c3b9259281900390910190a3505050565b600061093d848484610b55565b6109a884610949610840565b61056885604051806060016040528060288152602001610d3e602891396001600160a01b038a16600090815260016020526040812090610987610840565b6001600160a01b031681526020810191909152604001600020549190610aae565b5060019392505050565b6001600160a01b0382166109f75760405162461bcd60e51b8152600401808060200182810382526021815260200180610d8a6021913960400191505060405180910390fd5b610a038260008361060f565b610a4081604051806060016040528060228152602001610cd4602291396001600160a01b0385166000908152602081905260409020549190610aae565b6001600160a01b038316600090815260208190526040902055600254610a6690826107e3565b6002556040805182815290516000916001600160a01b038516917fddf252ad1be2c89b69c2b068fc378daa952ba7f163c4a11628f55a4df523b3ef9181900360200190a35050565b60008184841115610b3d5760405162461bcd60e51b81526004018080602001828103825283818151815260200191508051906020019080838360005b83811015610b02578181015183820152602001610aea565b50505050905090810190601f168015610b2f5780820380516001836020036101000a031916815260200191505b509250505060405180910390fd5b505050900390565b6000610461610b52610840565b84845b6001600160a01b038316610b9a5760405162461bcd60e51b8152600401808060200182810382526025815260200180610dab6025913960400191505060405180910390fd5b6001600160a01b038216610bdf5760405162461bcd60e51b8152600401808060200182810382526023815260200180610cb16023913960400191505060405180910390fd5b610bea83838361060f565b610c2781604051806060016040528060268152602001610d18602691396001600160a01b0386166000908152602081905260409020549190610aae565b6001600160a01b038085166000908152602081905260408082209390935590841681522054610c569082610789565b6001600160a01b038084166000818152602081815260409182902094909455805185815290519193928716927fddf252ad1be2c89b69c2b068fc378daa952ba7f163c4a11628f55a4df523b3ef92918290030190a350505056fe45524332303a207472616e7366657220746f20746865207a65726f206164647265737345524332303a206275726e20616d6f756e7420657863656564732062616c616e636545524332303a20617070726f766520746f20746865207a65726f206164647265737345524332303a207472616e7366657220616d6f756e7420657863656564732062616c616e636545524332303a207472616e7366657220616d6f756e74206578636565647320616c6c6f77616e636545524332303a206275726e20616d6f756e74206578636565647320616c6c6f77616e636545524332303a206275726e2066726f6d20746865207a65726f206164647265737345524332303a207472616e736665722066726f6d20746865207a65726f206164647265737345524332303a20617070726f76652066726f6d20746865207a65726f206164647265737345524332303a2064656372656173656420616c6c6f77616e63652062656c6f77207a65726fa2646970667358221220077e41b05eb6c4538e73de244df9b9587026f908d172d2c6130ab6d64d5b77e064736f6c63430007060033",
    "sourcePath": "/home/ubuntu/git/customers/xionglobal/finance_contracts/contracts/token/XGTToken.sol",
    "compiler": {
        "name": "solc",
        "version": "0.7.6+commit.7338295f"
    },
    "functionHashes": {
        "COMMUNITY_AND_AIRDROPS()": "4f27fd28",
        "FOUNDERS_RESERVE()": "0c0aa027",
        "ISSUE_RESERVE()": "c0becbe8",
        "MARKET_MAKING()": "0b2fd223",
        "MAX_SUPPLY()": "32cb6b0c",
        "TEAM_AND_ADVISORS()": "4fad7560",
        "XION_RESERVE()": "74aa6cf8",
        "allowance(address,address)": "dd62ed3e",
        "approve(address,uint256)": "095ea7b3",
        "balanceOf(address)": "70a08231",
        "burn(uint256)": "42966c68",
        "burnFrom(address,uint256)": "79cc6790",
        "decimals()": "313ce567",
        "decreaseAllowance(address,uint256)": "a457c2d7",
        "increaseAllowance(address,uint256)": "39509351",
        "name()": "06fdde03",
        "symbol()": "95d89b41",
        "totalSupply()": "18160ddd",
        "transfer(address,uint256)": "a9059cbb",
        "transferFrom(address,address,uint256)": "23b872dd"
    },
    "gasEstimates": {
        "creation": {
            "codeDepositCost": "732400",
            "executionCost": "infinite",
            "totalCost": "infinite"
        },
        "external": {
            "COMMUNITY_AND_AIRDROPS()": "221",
            "FOUNDERS_RESERVE()": "288",
            "ISSUE_RESERVE()": "286",
            "MARKET_MAKING()": "266",
            "MAX_SUPPLY()": "265",
            "TEAM_AND_ADVISORS()": "243",
            "XION_RESERVE()": "287",
            "allowance(address,address)": "1360",
            "approve(address,uint256)": "infinite",
            "balanceOf(address)": "1212",
            "burn(uint256)": "infinite",
            "burnFrom(address,uint256)": "infinite",
            "decimals()": "1058",
            "decreaseAllowance(address,uint256)": "infinite",
            "increaseAllowance(address,uint256)": "infinite",
            "name()": "infinite",
            "symbol()": "infinite",
            "totalSupply()": "1110",
            "transfer(address,uint256)": "infinite",
            "transferFrom(address,address,uint256)": "infinite"
        }
    }
}